:020000040000FA
:100000000C9451080C946B0F0C94440F0C947908C9
:100010000C9479080C9479080C9479080C9479085C
:100020000C9479080C9479080C9479080C9479084C
:100030000C9479080C9479080C9479080C9479083C
:100040000C94FA0E0C9479080C94C80E0C94A20E21
:100050000C9479080C9479080C9479080C9479081C
:100060000C94920F0C9479084461726B6E657373F3
:10007000206C696B65206D69646E696768742066C1
:10008000726F6D2074686520736F6262696E67209D
:10009000776F6F64732E004A6F686E20436C6172D5
:1000A000650054686F73652077686F2068617665B6
:1000B00020612777687927746F206C6976652C201A
:1000C00063616E2062617265207769746820616C7B
:1000D0006D6F737420616E792027686F77272E000B
:1000E000562E4672616E6B6C0049742077617320E6
:1000F0007468652062657374206F662074696D652D
:10010000732C206974207761732074686520776F81
:10011000727374206F662074696D65730043686143
:10012000726C6573204469636B656E73004168206F
:100130004A657375732100436F6C6F6E616C204A62
:100140006573736570212044696420796F75206F31
:10015000726465722074686520636F6465207265DF
:10016000642100546F6D2043727569736500536F8D
:100170006D65776865726520616C6F6E6720746865
:1001800065207761792C2049207265616C697365FF
:100190006420492077617320736D696C696E670014
:1001A0004B2E4B2E506F6F6C65004F6820636F6E47
:1001B000666F756E642069740057686174206120F1
:1001C000626C657373696E67210052656E6E696556
:1001D0000047657420476F6C642C2068756D616EF4
:1001E000656C7920696620796F752063616E2C20BB
:1001F00062757420617420616C6C2068617A617230
:1002000064732C2067657420676F6C6400466572A8
:1002100064696E616E6400596F7520646F6E277437
:10022000206861766520746F207365652074686549
:100230002077686F6C6520737461697263617365A0
:100240002C206A7573742074616B65207468652056
:1002500066697273742073746570004D2E4C2E4B5A
:10026000696E672C4A720054686520626573742059
:1002700077617920746F206E6F74206665656C20DD
:10028000686F70656C65737320697320746F206785
:10029000657420757020616E6420646F20736F6DCB
:1002A000657468696E672E004F62616D6100546805
:1002B00065204E6F61682072756C653A20507265DA
:1002C00064696374696E67207261696E20646F652A
:1002D000736E277420636F756E743B206275696C52
:1002E00064696E672061726B7320646F657300428E
:1002F000756666657474004E6576657220747275F5
:10030000737420616E796F6E652077686F736520F6
:10031000545620697320626967676572207468614A
:100320006E20746865697220626F6F6B20736865F8
:100330006C6600456D696C696120436C61726B6528
:1003400000596F75277265206F6E6C79206769762A
:10035000656E2061206C6974746C652073706172C5
:100360006B206F66206D61646E6573732E20596F0C
:1003700075206D7573746E2774206C6F73652069BA
:100380007400522E57696C6C69616D730049207757
:100390006973682074686520776F726C6420776178
:1003A00073207477696365206173206269672061D7
:1003B0006E64207374696C6C2068616C6620756E65
:1003C0006578706C6F72656400417474656E626FFD
:1003D000726F75676800416C6C20676F7665726E2E
:1003E0006D656E747320617265206C79696E67202B
:1003F000636F636B7375636B65727300446F6E2715
:100400007420776F7272793B20646F6E277420625C
:1004100065206166726169642C20657665722C20A6
:100420006265636175736520746869732069732000
:100430006A757374206120726964650042696C6C2E
:10044000204869636B730042656C69657665206955
:100450006E20796F757220666C796E6573732E2EBF
:100460002E636F6E7175657220796F757220736877
:10047000796E657373004B616E796520576573748F
:10048000005468657265206973206E6F7468696EC8
:10049000672065697468657220676F6F64206F728A
:1004A0002062616420627574207468696E6B696E85
:1004B00067206D616B657320697420736F00596FDD
:1004C00075206B6E6F772C2049276D2C206C696B23
:1004D000652C206120736D61727420706572736F7A
:1004E0006E00446F6E616C64205472756D700054C0
:1004F00068657265206973206E6F206469616C6F36
:100500006775652065786365707420776974682005
:10051000776561706F6E73004F73616D6120626902
:100520006E204C6164656E005069636B20612066CB
:100530006C6F776572206F6E204561727468206100
:100540006E6420796F75206D6F7665207468652004
:1005500066617274686573742073746172004469B3
:1005600072616300456E7469746965732073686FA6
:10057000756C64206E6F74206265206D756C746993
:10058000706C69656420776974686F7574206E6536
:1005900063657373697479004F6363616D277320BA
:1005A00072617A6F7200416E797468696E67205467
:1005B0006861742043616E20506F737369626C7957
:1005C00020476F2057726F6E672C20446F65730051
:1005D0004D75727068792773204C617700466C6F97
:1005E0006174206C696B652061206275747465723A
:1005F000666C792C207374696E67206C696B65205A
:100600006120626565004D7568616D6D65642041AE
:100610006C690054686520726562656C6C696F6E08
:10062000206F6620746865206578706C6F697465EA
:1006300064206973206E6576657220746572726FCE
:100640007269736D00416C667265646F204D2E2077
:10065000426F6E616E6E6F00544849532E204953AD
:100660002E20535041525441212121004B696E6785
:10067000204C656F6E69646173004B6F6F6E612013
:100680007427636875746120536F6C6F3F00477205
:100690006565646F00546865204475646520616217
:1006A000696465730054686520426967204C65621F
:1006B0006F77736B69004D616D6120736179732C85
:1006C00020275374757069642069732061732073E7
:1006D000747570696420646F65732E2700466F72AD
:1006E000726573742047756D700057687920736F59
:1006F00020736572696F75733F004A6F6B65720096
:1007000045766572797468696E6720796F752063C4
:10071000616E20696D6167696E652069732072651D
:10072000616C005069636173736F00476F6F642081
:10073000667269656E64732C20676F6F6420626FE8
:100740006F6B732C20616E64206120736C65657023
:100750007920636F6E736369656E63653A207468B0
:1007600069732069732074686520696465616C2011
:100770006C69666500547761696E00546F206C691E
:100780007665206973207468652072617265737480
:10079000207468696E6720696E2074686520776FC1
:1007A000726C642E204D6F73742070656F706C6571
:1007B0002065786973742C207468617420697320D3
:1007C000616C6C0057696C64650048656C6C2069ED
:1007D0007320656D70747920616E6420616C6C208B
:1007E00074686520646576696C7320617265206841
:1007F000657265005368616B657370656172650051
:100800004D757369632069732E2E2E20412068690F
:100810006768657220726576656C6174696F6E20B9
:100820007468616E20616C6C20576973646F6D2011
:1008300026205068696C6F736F7068790042656537
:1008400074686F76656E00546865206F6E6C7920F1
:100850007472756520776973646F6D2069732069A0
:100860006E206B6E6F77696E6720796F75206B6E87
:100870006F77206E6F7468696E6700536F63726183
:1008800074657300412074727574682074686174B3
:10089000277320746F6C64207769746820626164C8
:1008A00020696E74656E742C2062656174732061BA
:1008B0006C6C20746865206C69657320796F752095
:1008C00063616E20696E76656E7400426C616B6563
:1008D000005768656E2077652061726520746972C3
:1008E00065642C2077652061726520617474616392
:1008F0006B65642062792069646561732077652087
:10090000636F6E717565726564206C6F6E672061D0
:10091000676F004E6965747A73686500496620499F
:100920002068617665207365656E206675727468EF
:100930006572206974206973206279207374616E16
:1009400064696E67206F6E207468652073686F75C8
:100950006C64657273206F66204769616E74730002
:100960004E6577746F6E004E6F7468696E672069AC
:1009700073207065726D616E656E7420696E20748F
:10098000686973207769636B656420776F726C6444
:10099000202D206E6F74206576656E206F75722035
:1009A00074726F75626C657300436861706C696E18
:1009B00000416E2069646561206973206E6F746800
:1009C000696E672C2069747320696D706C656D6544
:1009D0006E746174696F6E2065766572797468698A
:1009E0006E672E00416C6578616E646572204B7293
:1009F0006F6E726F64004C696665206973206E6566
:100A000061722D64656174682065787065726965CE
:100A10006E636500416C61696E20646520426F748D
:100A2000746F6E00436F757261676520697320741F
:100A30006865207265736F6C7574696F6E20746F72
:100A400020666163652074686520756E666F7265E7
:100A50007365656E2E00416761746861204368723A
:100A60006973746965005468657265206973206EE6
:100A70006F2077617920746F2070656163653B201A
:100A8000706561636520697320746865207761799A
:100A90002E00412E4A2E4D7573746500486F7720E5
:100AA000737765657420746F206265206120636CC4
:100AB0006F756420666C6F6174696E6720696E2063
:100AC00074686520626C75652E00412E412E4D695B
:100AD0006C6E6500416C776179732074776F207458
:100AE00068657265206172652C206E6F206D6F7273
:100AF000652C206E6F206C6573732E2041206D6114
:100B00007374657220616E6420616E206170707212
:100B1000656E74696365005472756C7920776F6EC9
:100B200064657266756C2C20746865206D696E64EE
:100B3000206F662061206368696C642069730044DB
:100B40006F206F7220646F206E6F742C2074686544
:100B50007265206973206E6F2074727900596F641A
:100B60006100492068617665206E6F742066616956
:100B70006C65642E2049277665206A75737420663B
:100B80006F756E642031302C30303020776179738E
:100B9000207468617420776F6E277420776F726B92
:100BA00000456469736F6E005768656E20796F75D4
:100BB00027726520637572696F75732C20796F7564
:100BC0002066696E64206C6F7473206F6620696E96
:100BD000746572657374696E67207468696E677393
:100BE00020746F20646F00572E4469736E6579001E
:100BF00052656A65637420796F75722073656E73D0
:100C000065206F6620696E6A75727920616E642056
:100C100074686520696E6A75727920697473656C91
:100C200066206469736170706561727300417572EA
:100C3000656C6975730048656176656E206973201F
:100C4000756E646572206F757220666565742061CB
:100C5000732077656C6C206173206F766572206FEE
:100C600075722068656164730054686F72656175A0
:100C7000004361727065204469656D2E205365697B
:100C80007A6520746865206461792C20626F7973BD
:100C900000496620796F7520646F6E2774206B6E33
:100CA0006F7720776865726520796F752772652088
:100CB000676F696E672C20616E7920726F6164279F
:100CC0006C6C2074616B6520796F75207468657237
:100CD0006500275477656C766520646561643F27FD
:100CE000204920736169642E20274A657375732E2D
:100CF00027004974277320666F6F6C6973682074CE
:100D00006F2072756E20746865207269736B206F36
:100D10006620676F696E67206D616420666F722060
:100D200076616E69747927732073616B6500476F14
:100D300064207761746368657320616E64206B69F9
:100D40006C6C73207573207768656E2077652067FB
:100D5000657420626F72696E672E205765206D750D
:100D60007374206E6576657220626520626F7269A9
:100D70006E67000045766572797468696E67206DEC
:100D8000757374206265206D6164652061732073E2
:100D9000696D706C6520617320706F737369626C2C
:100DA000652E20427574206E6F742073696D706CAF
:100DB0006572005265616C697479206973206D6594
:100DC00072656C7920616E20696C6C7573696F6EE9
:100DD0002C20616C626569742061207665727920CF
:100DE00070657273697374656E74206F6E65004907
:100DF000206E65766572207468696E6B206F662060
:100E0000746865206675747572652E204974206358
:100E10006F6D657320736F6F6E20656E6F75676899
:100E200000416E6F6E796D697479206973206E6F01
:100E30002065786375736520666F722073747570B2
:100E4000696469747900496620492063616E27747A
:100E500020706963747572652069742C2049206361
:100E6000616E277420756E6465727374616E6420A0
:100E70006974004275726561756372616379206996
:100E80007320746865206465617468206F662061F2
:100E90006C6C20736F756E6420776F726B00466F99
:100EA00072636520616C776179732061747472611B
:100EB000637473206D656E206F66206C6F77206D94
:100EC0006F72616C697479004F6E6C792061206C6F
:100ED000696665206C6976656420666F72206F7440
:100EE000686572732069732061206C69666520777C
:100EF0006F7274687768696C650049206E65766505
:100F000072207468696E6B206F6620746865206655
:100F100075747572652E20497420636F6D6573203A
:100F2000736F6F6E20656E6F7567680045696E73CD
:100F30007465696E0000000000230026002900008F
:100F40000000080002010000030407000000000088
:100F50000000002C0FFA0E2C0FC80E2C0F9E0E2C2A
:100F60000F730E2C0F460E2C0F210E2C0FEF0D2C95
:100F70000FB30D2C0F740D730D2E0D730DF20C733A
:100F80000DD20C730D910C730D710C690C360C2D78
:100F90000CF00BE70BA80BA10B620B5D0B3F0B5D7D
:100FA0000B170B5D0BD40ACA0A9C0A920A660A56F2
:100FB0000A240A140AF609E409B109A909670960B3
:100FC000091C091309D108CB0884087B0847087B52
:100FD0000847083D080008F407CA07C4077B0775DF
:100FE000072B0723070007FA06EA06DD06B606A563
:100FF0000695068E067A066C065806450613060602
:1010000006DD05D005A605980564055E05280518CA
:1010100005EF04E204BE04F4078104760447043CAF
:1010200004FC033C04D603C9038D0382034103334C
:1010300003F702EF02AE02A80267025B0217020D7D
:1010400002D101CA01B901CA01AA01A0016E01635E
:10105000013701A0012D011D01E900E000A2009768
:1010600000680000000000250028002B00000000A0
:1010700000240027002A00040404040404040402D9
:101080000202020202030303030303010204081025
:1010900020408001020408102001020408102000F2
:1010A000B11011241FBECFEFD8E0DEBFCDBF11E0DD
:1010B000A0E0B1E0E8EDF8E302C005900D92AC3697
:1010C000B107D9F723E0ACE6B1E001C01D92AD3A1B
:1010D000B207E1F718E0C1E5D8E004C02197FE01AE
:1010E0000E944F1AC035D107C9F70E94F9100C941D
:1010F0006A1C0C940000CF93DF9390E0FC01E5574D
:10110000FF4E249189589F4EFC0184918823C1F0A1
:1011100090E0880F991FFC01E359FF4EC591D491CF
:10112000FC01ED59FF4EA591B4919FB7F894388119
:10113000822F809583238883EC91E22BEC939FBFD1
:10114000DF91CF91089508950895DC01ED91FC9110
:101150000190F081E02D0994AF92BF92CF92DF927F
:10116000EF92FF920F931F93CF93DF936C017B015C
:101170008B01040F151FEB015E01AE18BF08C017ED
:10118000D10759F06991D601ED91FC910190F08160
:10119000E02DC6010995892B79F7C501DF91CF9123
:1011A0001F910F91FF90EF90DF90CF90BF90AF9085
:1011B0000895FC01538D448D252F30E0842F90E05D
:1011C000821B930B541710F0CF9608950197089542
:1011D000FC01918D828D981761F0A28DAE0FBF2F0B
:1011E000B11D5D968C91928D9F5F9F73928F90E061
:1011F00008958FEF9FEF0895FC01918D828D9817D0
:1012000031F0828DE80FF11D858D90E008958FEF0C
:101210009FEF0895FC01918D228D892F90E0805CD5
:101220009F4F821B91098F739927089584EF92E055
:101230000E940A0921E0892B09F420E0822F0895F9
:1012400080E090E0892B29F00E94160981110C940E
:1012500000000895FC01A48DA80FB92FB11DA35A59
:10126000BF4F2C91848D90E001968F739927848FC6
:10127000A689B7892C93A089B1898C9183708064E9
:101280008C93938D848D981306C00288F389E02D8A
:1012900080818F7D80830895EF92FF920F931F933B
:1012A000CF93DF93EC0181E0888F9B8D8C8D981319
:1012B0001AC0E889F989808185FF15C09FB7F89425
:1012C000EE89FF896083E889F98980818370806471
:1012D00080839FBF81E090E0DF91CF911F910F91BC
:1012E000FF90EF900895F62E0B8D10E00F5F1F4FCB
:1012F0000F731127E02E8C8D8E110CC00FB607FCDA
:10130000FACFE889F989808185FFF5CFCE010E9467
:101310002A09F1CFEB8DEC0FFD2FF11DE35AFF4FA2
:10132000F0829FB7F8940B8FEA89FB8980818062F5
:10133000CFCFCF93DF93EC01888D8823B9F0AA89B2
:10134000BB89E889F9898C9185FD03C0808186FD80
:101350000DC00FB607FCF7CF8C9185FFF2CF8081CF
:1013600085FFEDCFCE010E942A09E9CFDF91CF9111
:101370000895833081F028F4813099F08230A9F00B
:1013800008958730A9F08830C9F08430B1F4809195
:1013900080008F7D03C0809180008F7780938000D4
:1013A000089584B58F7784BD089584B58F7DFBCF74
:1013B0008091B0008F778093B00008958091B00045
:1013C0008F7DF9CFCF93DF93282F30E0F901E15CD7
:1013D000F04F8491F901E557FF4ED491F901E95896
:1013E000FF4EC491CC23A1F081110E94B909EC2FCA
:1013F000F0E0EE0FFF1FEB5CF04FA591B491EC9184
:10140000ED2381E090E009F480E0DF91CF91089531
:1014100080E090E0FACFCF93DF9382E00E94E20970
:10142000EC0183E00E94E20920916C0130916D0192
:10143000C817D90799F42F5F3F4F30936D01209360
:101440006C0180916C0190916D01880F991F9093B0
:10145000F3028093F202DF91CF9108952150310978
:10146000ECCF1F93CF93DF93282F30E0F901E15C9D
:10147000F04F8491F901E557FF4ED491F901E958F5
:10148000FF4EC491CC23A9F0162F81110E94B909F7
:10149000EC2FF0E0EE0FFF1FED59FF4EA591B49138
:1014A0008FB7F894EC91111108C0D095DE23DC932E
:1014B0008FBFDF91CF911F910895DE2BF8CF3FB7FB
:1014C000F8948091210290912202A0912302B09180
:1014D000240226B5A89B05C02F3F19F00196A11D37
:1014E000B11D3FBFBA2FA92F982F8827BC01CD016E
:1014F000620F711D811D911D42E0660F771F881FCD
:10150000991F4A95D1F708958F929F92AF92BF92FB
:10151000CF92DF92EF92FF924B015C010E945F0A33
:101520006B017C010E945F0A6C197D098E099F097D
:10153000683E734081059105A8F321E0821A910865
:10154000A108B10888EEC80E83E0D81EE11CF11C8A
:1015500081149104A104B10429F7FF90EF90DF906A
:10156000CF90BF90AF909F908F9008950895209155
:10157000D601260F3327331F21323105ECF4209199
:10158000FA01FC0190E080E0243069F082E00895E7
:10159000A091D6012191AC014A545E4FA40FB52F02
:1015A000B11D2C930196861798F38091D601680F90
:1015B0006093D60180E0089581E008951092FA01C9
:1015C00081E08093FC011092FB0161E082E10E94C6
:1015D000310A61E083E10E94310AE9EBF0E08081A9
:1015E0008E7F808380818D7F808388E48093B800A4
:1015F00085E48093BC000895CF93DF9391E09093AE
:10160000B5018823B9F0C091B800D091BA0080919B
:10161000BC008A7B8093BC0060E082E10E94310ABA
:1016200060E083E10E94310A0E94DE0AD093BA0092
:10163000C093B800DF91CF9108950895E0912C02F6
:1016400080912B02E81730F4F0E0E057FE4F8081E4
:1016500090E008958FEF9FEF089590912C02809174
:101660002B022FEF3FEF981748F4E92FF0E0E057F7
:10167000FE4F208130E09F5F90932C02C9010895B6
:1016800080912B0290912C02891B990B0895CF9287
:10169000DF92EF92FF920F931F93CF93DF937C0122
:1016A000CB018A0120918F01222389F0EB016B018C
:1016B000C40ED51ECC15DD0569F06991D701ED91F9
:1016C000FC910190F081E02DC7010995F3CF642FC3
:1016D0000E94B70AC801DF91CF911F910F91FF902F
:1016E000EF90DF90CF900895CF93DF931F92CDB707
:1016F000DEB7698320918F012223F9F0209129021E
:10170000203258F021E030E0FC013383228390E066
:1017100080E00F90DF91CF91089580912A02E82F09
:10172000F0E0E159FE4F998190838F5F80932A0208
:101730008093290281E090E0ECCF61E0CE01019638
:101740000E94B70AF7CFCF92DF92EF92FF920F93EA
:101750001F93CF93DF93FC01C48121E020938F017D
:10176000C0936E0110922A02109229028385682B81
:1017700081E993E00E94740BD0912902D13208F0E4
:1017800092C00E945F0A6B017C018091FA01811175
:1017900065C082E08093FA0181E08093FC018FEFC5
:1017A0008093F90110921E02D0931D02AFE6B1E0C2
:1017B000EDEFF1E080E0D81385C010921F02809118
:1017C0001F02CC0FC82BC0931F028091FB018130F8
:1017D00009F07CC01092FB010E945F0A6B017C0142
:1017E00080911F028093BB008091B1019091B20162
:1017F000A091B301B091B401892B8A2B8B2B99F066
:101800000E945F0A0091B1011091B2012091B301D1
:101810003091B4016C197D098E099F0906171707CD
:1018200028073907E0F18091BC0083FDD9CF85EC12
:101830008093BC000E945F0A6B017C018091FA01D9
:10184000823009F445C08091F9018F3F61F18091A8
:10185000F901803241F18091F90125C08091B101F7
:101860009091B201A091B301B091B401892B8A2B60
:101870008B2B09F48ACF0E945F0A0091B10110916D
:10188000B2012091B3013091B4016C197D098E0928
:101890009F09061717072807390708F076CF8091A8
:1018A000B0010E94FC0A10922A02109229021092A2
:1018B0008F01DF91CF911F910F91FF90EF90DF90FB
:1018C000CF9008959D9191938F5F75CF85EEB0CFA6
:1018D0008091B1019091B201A091B301B091B40196
:1018E000892B8A2B8B2B09F4A9CF0E945F0A0091C8
:1018F000B1011091B2012091B3013091B4016C1982
:101900007D098E099F09061717072807390708F070
:1019100095CFC5CF089590E080E008950F931F9371
:10192000CF93DF934115510541F0FC0104811581EE
:101930000115110539F4FB011082DF91CF911F9140
:101940000F910895415051094017510708F48A0139
:10195000EB01FC0160817181A801CE010E945B1C3A
:10196000C00FD11F1882E9CFFC0124813581232BC0
:1019700049F066E671E0808191810E944B1C21E074
:10198000892B09F020E0822F0895FB0101900020AF
:10199000E9F73197AF01461B570BDC01ED91FC9144
:1019A0000280F381E02D09948F929F92AF92BF92B3
:1019B000EF92FF920F931F93CF93DF93CDB7DEB7D4
:1019C000A1970FB6F894DEBF0FBECDBF7C01FA0120
:1019D000CB0119A2223008F42AE08E010F5D1F4FBF
:1019E000822E912CB12CA12CBF01A50194010E9443
:1019F0007419F901CA016A300CF5605DD8016E9363
:101A00008D01232B242B252B79F790E080E0109774
:101A100021F0BD01C7010E94C50CA1960FB6F89434
:101A2000DEBF0FBECDBFDF91CF911F910F91FF9011
:101A3000EF90BF90AF909F908F900895695CDECF3C
:101A40000F931F93CF938C01C62F0E94A30B6C2F73
:101A50006460C8010E94A30B6C2F6B7FC8010E94B9
:101A6000A30B83EC90E00197F1F7CF911F910F91B9
:101A700008950F931F93CF93DF938C01D62FC42F1C
:101A8000607F642B0E94200D80E1D89FB00111245B
:101A90006C2BC801DF91CF911F910F910C94200DF9
:101AA00040E061E08DE993E00E94390D8BE39FE116
:101AB0000197F1F70895CF93DF93CDB7DEB728975D
:101AC0000FB6F894DEBF0FBECDBF98E0E0E1F1E0C5
:101AD000DE01119601900D929A95E1F79091A50380
:101AE000981710F48FEF890F90E0880F991F21E06D
:101AF00030E02C0F3D1F820F931FFC016081606856
:101B000040E08DE993E028960FB6F894DEBF0FBE53
:101B1000CDBFDF91CF910C94390D41E00E94390D7A
:101B200081E090E00895FC0180819181009711F09F
:101B30000C94F11A0895EF92FF920F931F93CF9395
:101B4000DF93EC017B018A0188819981009729F05C
:101B50002A813B812417350788F4B8016F5F7F4FD6
:101B60000E947A1B009791F0998388831B830A83D4
:101B70002C813D81232B11F4FC0110821D830C83E9
:101B8000B701888199810E94541C0CC08881998179
:101B9000009711F00E94F11A198218821D821C828E
:101BA0001B821A82CE01DF91CF911F910F91FF907E
:101BB000EF900895CF93DF9300D0CDB7DEB7FC014F
:101BC00011821082138212821582148269831A8212
:101BD000BE016F5F7F4FFB0101900020E9F7319755
:101BE000AF01461B570B0E949B0D0F900F90DF918A
:101BF000CF910895FC011182108213821282158206
:101C00001482FB0101900020E9F73197AF01461BD8
:101C1000570B0C949B0DAF92BF92CF92DF92EF9235
:101C2000FF920F931F93CF93DF93EC016B015A0147
:101C300079012417350720F48B2D5901E42EF82E55
:101C40006AE671E0CE010E94FA0DD60114960D915C
:101C50001C91A016B10628F5E016F10608F48701DC
:101C6000D601ED91FC911197E00FF11FF0801082E9
:101C70006D917C916A0D7B1D61157105F1F0FB0181
:101C800001900020E9F73197AF01461B570BCE01B9
:101C90000E949B0DF60180819181080F191FD801C8
:101CA000FC92CE01DF91CF911F910F91FF90EF90A9
:101CB000DF90CF90BF90AF90089588819981009771
:101CC00011F00E94F11A198218821D821C821B8257
:101CD0001A82E0CF85ED8093BC008091B101909194
:101CE000B201A091B301B091B4010796A11DB11D3D
:101CF00023E0B695A795979587952A95D1F72091DA
:101D0000BC0024FD03C01092FA0108954091B10176
:101D10005091B2016091B3017091B401452B462BF3
:101D2000472B69F30097A105B10541F025E32A95FA
:101D3000F1F700000197A109B109E1CF8091B0014D
:101D40000C94FC0A1F920F920FB60F9211242F933E
:101D50003F934F935F936F937F938F939F93AF9333
:101D6000BF93EF93FF9384EF92E00E942A09FF91C3
:101D7000EF91BF91AF919F918F917F916F915F9103
:101D80004F913F912F910F900FBE0F901F9018957C
:101D90001F920F920FB60F9211242F938F939F9340
:101DA000EF93FF93E0910403F09105038081E091AC
:101DB0000A03F0910B0382FD1BC0908180910D03FB
:101DC0008F5F8F7320910E03821741F0E0910D0316
:101DD000F0E0EC50FD4F958F80930D03FF91EF9154
:101DE0009F918F912F910F900FBE0F901F9018957C
:101DF0008081F4CF1F920F920FB60F9211242F9370
:101E00003F938F939F93AF93BF9380912D029091B7
:101E10002E02A0912F02B09130023091200223E0D7
:101E2000230F2D3758F50196A11DB11D20932002D7
:101E300080932D0290932E02A0932F02B093300234
:101E40008091210290912202A0912302B09124025C
:101E50000196A11DB11D8093210290932202A093AF
:101E60002302B0932402BF91AF919F918F913F9134
:101E70002F910F900FBE0F901F90189526E8230FFB
:101E80000296A11DB11DD2CF1F920F920FB60F92D5
:101E900011242F933F934F935F936F937F938F936F
:101EA0009F93AF93BF93EF93FF93E0910201F09163
:101EB00003010995FF91EF91BF91AF919F918F9190
:101EC0007F916F915F914F913F912F910F900FBE36
:101ED0000F901F9018951F920F920FB60F9211241A
:101EE0002F933F934F935F936F937F938F939F9322
:101EF000AF93BF93EF93FF93E0910001F091010145
:101F00000995FF91EF91BF91AF919F918F917F9133
:101F10006F915F914F913F912F910F900FBE0F9056
:101F20001F9018951F920F920FB60F9211242F93A6
:101F30003F934F935F936F937F938F939F93AF9351
:101F4000BF93EF93FF938091B900887F803609F4A7
:101F50004AC0F0F5883209F4A7C018F5803109F4B9
:101F60009BC0B8F4882309F4F9C0883009F494C000
:101F7000FF91EF91BF91AF919F918F917F916F9161
:101F80005F914F913F912F910F900FBE0F901F9037
:101F90001895883109F488C0803251F78093F9018F
:101FA00014C0803409F49DC040F48033B9F3883301
:101FB000F9F68093F90185ECB0C0803509F485C04D
:101FC000883509F496C0883499F60E946A0ED0CFFD
:101FD000883909F48CC038F5883729F050F48836F0
:101FE00011F0803729F683E08093FA011092F8010E
:101FF00057C0883809F47BC0803919F0803809F05F
:10200000B7CF8091F801803208F071C0E091F801FB
:1020100081E08E0F8093F8018091BB00F0E0E852E0
:10202000FE4F80833DC0803B39F0E0F4803A09F4F4
:1020300079C0883A09F09CCF84E08093FA0110922D
:10204000D7011092D601E0912702F091280209955C
:102050008091D60181110FC081E08093D60110924A
:10206000B60109C0803C09F4A6CF883C09F4A3CF8F
:10207000883B09F07DCFE091D70181E08E0F8093FE
:10208000D701F0E0EA54FE4F80818093BB0090912D
:10209000D7018091D60129C080911F028093BB0097
:1020A00085EC8093BC0064CF90911E0280911D024C
:1020B000981758F5E0911E0281E08E0F80931E0262
:1020C000F0E0E350FE4F8081E9CFE0911E0281E015
:1020D0008E0F80931E028091BB00F0E0E350FE4F14
:1020E000808390911E0280911D029817C8F285E8A6
:1020F000D8CFE0911E0281E08E0F80931E02809166
:10210000BB00F0E0E350FE4F80838091FC01811121
:102110005CCF81E08093FB0184EA8093BC00109245
:10212000FA0126CF85EC8093BC001092FA018091D1
:10213000F801803230F4E091F801F0E0E852FE4F0F
:1021400010826091F80170E0E0912502F091260282
:1021500088ED91E009951092F8010ACF1092F901EB
:1021600034CFE4EFF2E01382128288EE93E0A0E035
:10217000B0E084839583A683B7832CE131E031837B
:10218000208325EC30E03587248724EC30E0378746
:10219000268720EC30E0318B208B21EC30E0338B34
:1021A000228B22EC30E0358B248B26EC30E0378B11
:1021B000268B118E128E138E148EE1E9F3E01382BA
:1021C000128284839583A683B7838EE291E0918304
:1021D0008083EDE9F3E01382128280E491E0918341
:1021E000808387E2848384E1818784E08287138609
:1021F0000895CF93DF93CDB7DEB7AB970FB6F894C2
:10220000DEBF0FBECDBF789484B5826084BD84B537
:10221000816084BD85B5826085BD85B5816085BDE1
:1022200080916E00816080936E0010928100809199
:102230008100826080938100809181008160809321
:102240008100809180008160809380008091B10046
:1022500084608093B1008091B00081608093B00071
:1022600080917A00846080937A0080917A00826005
:1022700080937A0080917A00816080937A008091C7
:102280007A00806880937A001092C10010922C022C
:1022900010922B0210922A02109229020E94DE0A4A
:1022A00083EA98E0909328028093270284EA98E0DA
:1022B00090932602809325021092A2038091A70397
:1022C000823018F098E09093A2038093A50362E314
:1022D00070E080E090E00E94840A6091A8038DE99C
:1022E00093E00E94A30B68EE73E080E090E00E9410
:1022F000840A60E38DE993E00E94200D0BE416E46C
:10230000C8010197F1F760E38DE993E00E94200D89
:10231000C8010197F1F760E38DE993E00E94200D79
:1023200083E592E00197F1F760E28DE993E00E9486
:10233000200D6091A203606240E08DE993E00E946D
:10234000390D84E08093A30340E06CE08DE993E0D5
:102350000E94390D0E94500D12E01093A40340E03A
:1023600066E08DE993E00E94390D40E062E08DE97E
:1023700093E00E94390D8BE39FE10197F1F788E02C
:102380008093A80360E08DE993E00E94A30BE091A5
:102390000403F09105031083E0910003F091010321
:1023A0001082E0910203F09103038FEC808310927E
:1023B0000C03E0910803F091090386E08083E0912B
:1023C0000603F0910703808180618083E09106031A
:1023D000F0910703808188608083E0910603F0918B
:1023E0000703808180688083E0910603F0910703F2
:1023F00080818F7D808380E480937C0080917A004F
:10240000806480937A0080917A0086FDFCCF809171
:10241000780060917900762F682F072E000C880BCA
:10242000990B611571058105910511F00E946D18D8
:1024300082E00E947B0883E00E947B088BE09AE0A8
:102440009093010180930001809169008C7F8160ED
:1024500080936900E89A64E4462E512C612C712C1B
:10246000E090F202F090F302C090F002D090F102FE
:10247000EC14FD0421F01092EF021092EE02009194
:10248000EE021091EF020115110509F0A9C28DB6F7
:102490009EB660ED77E080E090E00E94840A809133
:1024A0000401909105018E0D9F1D8C199D0990933B
:1024B000050180930401F092F102E092F002059789
:1024C0003CF455E0A52EB12CB0920501A092040178
:1024D0000E94500D80E00E945B0D68E471E08DE980
:1024E00093E00E94C50C81E00E945B0DC090040146
:1024F000D09005010D2C000CEE08FF082AE0B70172
:10250000A601F7FE0DC06DE28DE993E00E94A508DB
:1025100044275527BA014C195D096E097F092AE045
:102520008DE993E00E94D40C69E571E08DE993E0B8
:102530000E94C50C60ED77E080E090E00E94840A84
:102540002FB7F89480912D0290912E02A0912F0226
:10255000B09130022FBF8093EA029093EB02A093D8
:10256000EC02B093ED020E94500DE1E6F0E16591BE
:1025700074918AE992E00E947618EFE5F0E16591A6
:10258000749186E892E00E94761862E671E081E339
:1025900092E00E94541C6AE972E081E392E00E949A
:1025A000401C62E671E081E392E00E94401C809151
:1025B0008602882361F064E671E081E392E00E9484
:1025C000401C66E872E081E392E00E94401C41E317
:1025D000E42E42E0F42EF70161917F01CE010196D5
:1025E0000E94DA0DCE0101960E94B40CD82ECE01C5
:1025F00001960E94930DDD2011F019A308A30F5F2F
:102600001F4F0531110539F761E372E0CE010196E4
:102610000E94FA0D28A139A150E040E0BE016F5F91
:102620007F4FCE0149960E940B0ECE0101960E946B
:10263000930D01E010E0E8A0F9A0E00EF11EF70113
:10264000EF5CFD4F6081CE0101960E94DA0DCE0154
:1026500001960E94B40CD82ECE0101960E94930DD3
:10266000D11017010F5F1F4F0631110521F761E3EC
:1026700072E0CE0101960E94FA0D910148A159A184
:102680004F5F5F4FBE016F5F7F4FCE0143960E9449
:102690000B0ECE0101960E94930D8101EE24E3946E
:1026A000F12C6101CE0CDF1CF601EF5CFD4F608167
:1026B000CE0101960E94DA0DCE0101960E94B40C63
:1026C000B82ECE0101960E94930DB1108601FFEF46
:1026D000EF1AFF0A26E1E216F10419F761E372E04E
:1026E000CE0101960E94FA0D9801A1014F5F5F4F44
:1026F000BE016F5F7F4FCE010D960E940B0ECE0183
:1027000001960E94930D81E392E0FC01019000206C
:10271000E9F7CF018253924098012B5E3F4F281773
:10272000390790F462E671E081E392E00E94541C64
:102730006AE972E081E392E00E94401C62E671E087
:1027400081E392E00E94401C8AE992E0FC01019042
:102750000020E9F7CF018B59924098012D5E3F4F41
:102760002817390790F462E671E081E392E00E9455
:10277000541C6AE972E081E392E00E94401C62E628
:1027800071E081E392E00E94401C6801FFEFCF1AE4
:10279000DF0A580126E1A20EB11C7601F701EF5CB9
:1027A000FD4F6081CE0101960E94DA0DCE010196A7
:1027B0000E94B40C8F8FCE0101960E94930D3F8D25
:1027C00031118701E1E3F2E001900020E9F7CF0148
:1027D000825392408E159F0509F48701FFEFEF1A8F
:1027E000FF0AEA14FB04D1F661E372E0CE01019620
:1027F0000E94FA0D9801A601BE016F5F7F4FCE01C6
:1028000007960E940B0ECE0101960E94930D80E068
:102810000E945B0D4D8D5E8D4F5F5F4FADB6BEB6B6
:10282000A41AB50A0FB6F894BEBE0FBEADBE0DB762
:102830001EB70F5F1F4FB801CE0149960E948E0C44
:102840007801F80101900020E9F73197E01BF10BC6
:10285000C701801B910B8E179F0770F4F7016191E0
:102860007F018DE993E00E94A50862E370E080E0BB
:1028700090E00E94840AE5CF81E00E945B0D4F89C1
:10288000588D4F5F5F4FADB6BEB6A41AB50A0FB6EE
:10289000F894BEBE0FBEADBE0DB71EB70F5F1F4F83
:1028A000B801CE0143960E948E0C7801F801019088
:1028B0000020E9F73197E01BF10BC701801B910B5A
:1028C0008E179F0770F4F70161917F018DE993E006
:1028D0000E94A50862E370E080E090E00E94840A14
:1028E000E5CF82E00E945B0D49895A894F5F5F4FB7
:1028F000ADB6BEB6A41AB50A0FB6F894BEBE0FBEEA
:10290000ADBE0DB71EB70F5F1F4FB801CE010D96BC
:102910000E948E0C7801F80101900020E9F73197B0
:10292000E01BF10BC701801B910B8E179F0770F402
:10293000F70161917F018DE993E00E94A50862E3B0
:1029400070E080E090E00E94840AE5CF83E00E947E
:102950005B0D4B855C854F5F5F4FADB6BEB6A41A6D
:10296000B50A0FB6F894BEBE0FBEADBE0DB71EB70A
:102970000F5F1F4FB801CE0107960E948E0C7801A1
:10298000F80101900020E9F73197E01BF10BC70136
:10299000801B910B8E179F0770F4F70161917F01E7
:1029A0008DE993E00E94A50862E370E080E090E08A
:1029B0000E94840AE5CFCE0107960E94930DCE01B6
:1029C0000D960E94930DCE0143960E94930DCE0169
:1029D00049960E94930D0FB6F8949EBE0FBE8DBE11
:1029E0008FB7F894C0902D02D0902E02E0902F0265
:1029F000F09030028FBFA0910401B091050128EE44
:102A000033E00E94481A8090EA029090EB02A09076
:102A1000EC02B090ED02A7019601281939094A0984
:102A20005B09261737074807590708F49DC28DB67A
:102A30009EB6C092EA02D092EB02E092EC02F092D3
:102A4000ED020E941E18A30192010E940B1997FD2E
:102A5000C8C10E941E18A30192010E940B190E9476
:102A60007F1820E030E040E05FE30E94A6190E945A
:102A7000121A8B016B01770FEE08FF082AE0B701ED
:102A8000A601F7FE0DC06DE284EF92E00E94A5085A
:102A900044275527BA014C195D096E097F092AE0C0
:102AA00084EF92E00E94D40C68E671E084EF92E03B
:102AB0000E94C50C0E94500D000F111F000F111F26
:102AC000F801EB5AF04F659174918AE992E00E9407
:102AD00076180D5A104FF8016591749186E892E0CE
:102AE0000E94761862E671E081E392E00E94541C35
:102AF0006AE972E081E392E00E94401C62E671E0C4
:102B000081E392E00E94401C80918602882361F05C
:102B100064E671E081E392E00E94401C66E872E0A6
:102B200081E392E00E94401C01E312E0F12CE12CD1
:102B3000F80161918F01CE0101960E94DA0DCE015C
:102B400001960E94B40CD82ECE0101960E94930DDE
:102B5000DD2011F0FBA2EAA2FFEFEF1AFF0A25E148
:102B6000E216F10429F761E372E0CE0101960E94BA
:102B7000FA0D2AA13BA150E040E0BE016F5F7F4FFC
:102B8000CE0149960E940B0ECE0101960E94930D34
:102B900001E010E0EAA0FBA0E00EF11EF701EF5CFF
:102BA000FD4F6081CE0101960E94DA0DCE010196A3
:102BB0000E94B40CD82ECE0101960E94930DDD2008
:102BC00011F0FBA6EAA60F5F1F4F0631110511F7A2
:102BD00061E372E0CE0101960E94FA0D2AA53BA5A1
:102BE0004AA15BA14F5F5F4FBE016F5F7F4FCE0178
:102BF00043960E940B0ECE0101960E94930D0AA5EA
:102C00001BA5EE24E394F12CCAA4DBA4CE0CDF1C9C
:102C1000F601EF5CFD4F6081CE0101960E94DA0D56
:102C2000CE0101960E94B40CB82ECE0101960E94EE
:102C3000930DB11086013FEFE31AF30A46E1E41663
:102C4000F10411F761E372E0CE0101960E94FA0DE2
:102C500098014AA55BA54F5F5F4FBE016F5F7F4F35
:102C6000CE010D960E940B0ECE0101960E94930D8F
:102C700081E392E0FC0101900020E9F7CF0182534B
:102C8000924098012B5E3F4F2817390790F462E677
:102C900071E081E392E00E94541C6AE972E081E3F2
:102CA00092E00E94401C62E671E081E392E00E94A3
:102CB000401C8AE992E0FC0101900020E9F7CF0175
:102CC0008B59924098012D5E3F4F2817390790F499
:102CD00062E671E081E392E00E94541C6AE972E0CE
:102CE00081E392E00E94401C62E671E081E392E0A1
:102CF0000E94401C6801FFEFCF1ADF0A580126E14D
:102D0000A20EB11C7601F701EF5CFD4F6081CE0190
:102D100001960E94DA0DCE0101960E94B40C8F8FAD
:102D2000CE0101960E94930D3F8D31118701E1E3A1
:102D3000F2E001900020E9F7CF0182539240E816BB
:102D4000F90609F48701FFEFEF1AFF0AAE14BF047A
:102D5000D1F661E372E0CE0101960E94FA0D98016E
:102D6000A601BE016F5F7F4FCE0107960E940B0E3A
:102D7000CE0101960E94930D80E00E945B0D4D8D67
:102D80005E8D4F5F5F4FADB6BEB6A41AB50A0FB6E3
:102D9000F894BEBE0FBEADBE0DB71EB70F5F1F4F7E
:102DA000B801CE0149960E948E0C7801F80101907D
:102DB0000020E9F73197E01BF10BC701801B910B55
:102DC0008E179F07E8F4F70161917F018DE993E089
:102DD0000E94A50862E370E080E090E00E94840A0F
:102DE000E5CF0E941E18A30192010E940B190E94B8
:102DF0007F1820E030E040E05FE30E94A51937CE65
:102E000081E00E945B0D4F89588D4F5F5F4FADB6DB
:102E1000BEB6A41AB50A0FB6F894BEBE0FBEADBEBC
:102E20000DB71EB70F5F1F4FB801CE0143960E942A
:102E30008E0C7801F80101900020E9F73197E01B32
:102E4000F10BC701801B910B8E179F0770F4F701E0
:102E500061917F018DE993E00E94A50862E370E033
:102E600080E090E00E94840AE5CF82E00E945B0D42
:102E700049895A894F5F5F4FADB6BEB6A41AB50AED
:102E80000FB6F894BEBE0FBEADBE0DB71EB70F5F36
:102E90001F4FB801CE010D960E948E0C7801F801EB
:102EA00001900020E9F73197E01BF10BC701801B6F
:102EB000910B8E179F0770F4F70161917F018DE9E7
:102EC00093E00E94A50862E370E080E090E00E9439
:102ED000840AE5CF83E00E945B0D4B855C854F5FE4
:102EE0005F4FADB6BEB6A41AB50A0FB6F894BEBE13
:102EF0000FBEADBE0DB71EB70F5F1F4FB801CE019D
:102F000007960E948E0C7801F80101900020E9F7E5
:102F10003197E01BF10BC701801B910B8E179F07A8
:102F200070F4F70161917F018DE993E00E94A5089B
:102F300062E370E080E090E00E94840AE5CFCE0179
:102F400007960E94930DCE010D960E94930DCE011F
:102F500043960E94930DCE0149960E94930D0FB6A1
:102F6000F8949EBE0FBE8DBE60ED77E080E090E0ED
:102F70000E94840A8091EE029091EF020196909354
:102F8000EF028093EE0280E0882E80E0982E892860
:102F900009F466CA0E941609882309F461CA0E94CE
:102FA00000005ECA8F929F92AF92BF92CF92DF9243
:102FB000EF92FF92CF93DF93EC01688179818A8150
:102FC0009B81611571058105910521F464E279ED1C
:102FD0008BE597E02DE133EF41E050E00E940B19C3
:102FE00049015A019B01AC01A7EAB1E40E942A19E8
:102FF0006B017C01ACEEB4EFA50194010E9438197D
:10300000C60ED71EE81EF91EF7FE06C081E0C81ADC
:10301000D108E10880E8F80AC882D982EA82FB82F6
:10302000C701B6019F77DF91CF91FF90EF90DF90BE
:10303000CF90BF90AF909F908F9008958F929F9266
:10304000AF92BF92CF92DF92EF92FF926091060112
:103050007091070180910801909109016115710536
:103060008105910521F464E279ED8BE597E02DE18E
:1030700033EF41E050E00E940B1949015A019B01D6
:10308000AC01A7EAB1E40E942A196B017C01ACEE05
:10309000B4EFA50194010E943819C60ED71EE81E90
:1030A000F91EF7FE06C081E0C81AD108E10880E8E1
:1030B000F80AC0920601D0920701E0920801F0924E
:1030C0000901C701B6019F77FF90EF90DF90CF9085
:1030D000BF90AF909F908F9008956093060170937A
:1030E000070180930801909309010895FB01DC0119
:1030F00005900D920020E1F70895E89409C097FB30
:103100003EF490958095709561957F4F8F4F9F4FBE
:103110009923A9F0F92F96E9BB279395F695879502
:1031200077956795B795F111F8CFFAF4BB0F11F4C5
:1031300060FF1BC06F5F7F4F8F4F9F4F16C088236C
:1031400011F096E911C0772321F09EE8872F762FA2
:1031500005C0662371F096E8862F70E060E02AF0E3
:103160009A95660F771F881FDAF7880F96958795CF
:1031700097F9089597F99F6780E870E060E00895F7
:103180009FEF80EC089500240A941616170618067F
:103190000906089500240A9412161306140605065B
:1031A0000895092E0394000C11F4882352F0BB0FEC
:1031B00040F4BF2B11F460FF04C06F5F7F4F8F4F4F
:1031C0009F4F089557FD9058440F551F59F05F3F8A
:1031D00071F04795880F97FB991F61F09F3F79F039
:1031E00087950895121613061406551FF2CF4695BB
:1031F000F1DF08C0161617061806991FF1CF86953D
:103200007105610508940895E894BB276627772720
:10321000CB0197F90895052E97FB1EF400940E94A8
:10322000221957FD07D00E94741907FC03D04EF4F1
:103230000C94221950954095309521953F4F4F4F52
:103240005F4F089590958095709561957F4F8F4F52
:103250009F4F08950E949619A59F900DB49F900DC1
:10326000A49F800D911D11240895B7FF0C942A1975
:103270000E942A19821B930B08952F923F924F921E
:103280005F926F927F928F929F92AF92BF92CF92F6
:10329000DF92EF92FF920F931F93CF93DF93CDB7FF
:1032A000DEB7CA1BDB0B0FB6F894DEBF0FBECDBF77
:1032B00009942A88398848885F846E847D848C8448
:1032C0009B84AA84B984C884DF80EE80FD800C8151
:1032D0001B81AA81B981CE0FD11D0FB6F894DEBF34
:1032E0000FBECDBFED010895A1E21A2EAA1BBB1B94
:1032F000FD010DC0AA1FBB1FEE1FFF1FA217B307C2
:10330000E407F50720F0A21BB30BE40BF50B661FD7
:10331000771F881F991F1A9469F76095709580959B
:1033200090959B01AC01BD01CF010895A29FB00112
:10333000B39FC001A39F700D811D1124911DB29FE9
:10334000700D811D1124911D08955058BB27AA2787
:103350000E94BD190C94D1180E94C31838F00E9425
:10336000CA1820F039F49F3F19F426F40C94C018C1
:103370000EF4E095E7FB0C94BA18E92F0E94E218CE
:1033800058F3BA17620773078407950720F079F49A
:10339000A6F50C9404190EF4E0950B2EBA2FA02D6F
:1033A0000B01B90190010C01CA01A0011124FF27F2
:1033B000591B99F0593F50F4503E68F11A16F040ED
:1033C000A22F232F342F4427585FF3CF46953795EC
:1033D0002795A795F0405395C9F77EF41F16BA0BB1
:1033E000620B730B840BBAF09150A1F0FF0FBB1F5F
:1033F000661F771F881FC2F70EC0BA0F621F731FA8
:10340000841F48F4879577956795B795F7959E3F04
:1034100008F0B0CF9395880F08F09927EE0F979595
:10342000879508950E94191A6894B1110C94051992
:1034300008950E94EA1888F09F5798F0B92F9927AD
:10344000B751B0F0E1F0660F771F881F991F1AF08F
:10345000BA95C9F714C0B13091F00E940419B1E0D7
:1034600008950C940419672F782F8827B85F39F0D6
:10347000B93FCCF3869577956795B395D9F73EF428
:1034800090958095709561957F4F8F4F9F4F0895D0
:103490000E949619B7FF0895821B930B0895EE0FB3
:1034A000FF1F0590F491E02D09940F931F93CF9384
:1034B000DF938230910510F482E090E0E091AB035D
:1034C000F091AC0330E020E0B0E0A0E0309799F458
:1034D0002115310509F44AC0281B390B2430310568
:1034E000D8F58A819B816115710589F1FB01938370
:1034F0008283FE0111C040815181028113814817EE
:103500005907E0F04817590799F4109761F012969F
:103510000C93129713961C933296CF01DF91CF91A3
:103520001F910F9108950093AB031093AC03F4CF58
:103530002115310551F04217530738F0A901DB017D
:103540009A01BD01DF01F801C1CFEF01F9CF9093DE
:10355000AC038093AB03CDCFFE01E20FF31F819349
:1035600091932250310939832883D7CF2091A90321
:103570003091AA03232B41F420910C0130910D01CD
:103580003093AA032093A90320910A0130910B01E3
:103590002115310541F42DB73EB740910E015091F0
:1035A0000F01241B350BE091A903F091AA03E21748
:1035B000F307A0F42E1B3F0B2817390778F0AC0156
:1035C0004E5F5F4F2417350748F04E0F5F1F509333
:1035D000AA034093A903819391939FCFF0E0E0E089
:1035E0009CCFCF93DF930097E9F0FC0132971382D1
:1035F0001282A091AB03B091AC03ED0130E020E06A
:103600001097A1F420813181820F931F2091A9038B
:103610003091AA032817390709F061C0F093AA0373
:10362000E093A903DF91CF910895EA01CE17DF0758
:10363000E8F54A815B819E0141155105B1F7E90129
:10364000FB83EA8349915991C40FD51FEC17FD07FD
:1036500061F4808191810296840F951FE90199831D
:103660008883828193819B838A83F0E0E0E01296D5
:103670008D919C9113970097B9F52D913C911197DD
:10368000CD010296820F931F2091A9033091AA03C6
:103690002817390739F6309751F51092AC0310927C
:1036A000AB03B093AA03A093A903BCCFD383C28377
:1036B00040815181840F951FC817D90761F44E5F6F
:1036C0005F4F88819981480F591F518340838A81B8
:1036D0009B81938382832115310509F0B0CFF0934C
:1036E000AC03E093AB039ECFFD01DC01C0CF13829E
:1036F0001282D7CFB0E0A0E0E0E8FBE10C943F19E4
:103700008C01009751F4CB010E94551A8C01C8011D
:10371000CDB7DEB7E0E10C945B19FC01E60FF71FB3
:103720009C0122503109E217F30708F49DC0D9012A
:10373000CD91DC911197C617D70798F0C530D10508
:1037400030F3CE0104978617970708F3C61BD70BF3
:103750002297C193D1936D937C93CF010E94F11A6C
:10376000D6CF5B01AC1ABD0A4C018C0E9D1EA091F8
:10377000AB03B091AC03512C412CF12CE12C1097F0
:1037800031F58091A9039091AA038815990509F054
:103790005CC04616570608F058C080910A01909107
:1037A0000B01009741F48DB79EB740910E015091E7
:1037B0000F01841B950BE817F90708F055C0F0932B
:1037C000AA03E093A903F90171836083A0CF8D91CF
:1037D0009C91119712966C90129713967C90139768
:1037E000A815B90559F56C0142E0C40ED11CCA14E4
:1037F000DB0420F1AC014A195B09DA011296159736
:1038000080F06282738251834083D9016D937C93EF
:10381000E114F10471F0D7011396FC93EE93129723
:1038200076CF22968C0F9D1FF90191838083F3013F
:10383000EFCFF093AC03E093AB0369CF4816590682
:1038400008F42C017D01D3019ACFCB010E94551AB7
:103850007C01009749F0AE01B8010E94371CC801F5
:103860000E94F11A870153CF10E000E050CFFB0116
:10387000DC0102C001900D9241505040D8F70895EC
:10388000FB01DC010D900020E9F7119701900D92EA
:103890000020E1F70895FB01DC018D910190801972
:1038A0000110D9F3990B0895FB01DC0101900D92F1
:1038B0000020E1F70895FB01DC014150504048F041
:1038C00001900D920020C9F701C01D924150504057
:1038D000E0F70895F894FFCFB60AB60A0500010094
:1038E00000000000AD038000000040001400540000
:1038F000000000004C09AC08D90899090A09E80839
:10390000FC0800000000740B470B8B0C1D0B400BD8
:103910002D0B1E0B000000008D0DAC088B0C8A0CCB
:1039200071756F7465206475726174696F6E3A2089
:1039300000207365636F6E6473002200202D2000E9
:043940000D0A00006C
:107E0000112484B714BE81FFF0D085E080938100F7
:107E100082E08093C00088E18093C10086E0809377
:107E2000C20080E18093C4008EE0C9D0259A86E02C
:107E300020E33CEF91E0309385002093840096BBD3
:107E4000B09BFECF1D9AA8958150A9F7CC24DD24C4
:107E500088248394B5E0AB2EA1E19A2EF3E0BF2EE7
:107E6000A2D0813461F49FD0082FAFD0023811F036
:107E7000013811F484E001C083E08DD089C08234E0
:107E800011F484E103C0853419F485E0A6D080C0E4
:107E9000853579F488D0E82EFF2485D0082F10E0AE
:107EA000102F00270E291F29000F111F8ED06801E7
:107EB0006FC0863521F484E090D080E0DECF843638
:107EC00009F040C070D06FD0082F6DD080E0C81688
:107ED00080E7D80618F4F601B7BEE895C0E0D1E017
:107EE00062D089930C17E1F7F0E0CF16F0E7DF06D8
:107EF00018F0F601B7BEE89568D007B600FCFDCFD4
:107F0000A601A0E0B1E02C9130E011968C91119780
:107F100090E0982F8827822B932B1296FA010C0160
:107F200087BEE89511244E5F5F4FF1E0A038BF0790
:107F300051F7F601A7BEE89507B600FCFDCF97BE46
:107F4000E89526C08437B1F42ED02DD0F82E2BD052
:107F50003CD0F601EF2C8F010F5F1F4F84911BD097
:107F6000EA94F801C1F70894C11CD11CFA94CF0C13
:107F7000D11C0EC0853739F428D08EE10CD085E9AC
:107F80000AD08FE07ACF813511F488E018D01DD067
:107F900080E101D065CF982F8091C00085FFFCCF94
:107FA0009093C60008958091C00087FFFCCF809118
:107FB000C00084FD01C0A8958091C6000895E0E648
:107FC000F0E098E1908380830895EDDF803219F02E
:107FD00088E0F5DFFFCF84E1DECF1F93182FE3DFCA
:107FE0001150E9F7F2DF1F91089580E0E8DFEE27F6
:047FF000FF270994CA
:027FFE00040479
:00000001FF
